:020000040000FA
:100000000A128A11D42F00308A000408840A820759
:100010000034683465346C346C346F342034773495
:0E0020006F3472346C3464343A34203400345B
:10090A0001300A128A11DD240A128A1108000730FE
:10091A00831603139F008501880187010800373475
:10092A003834393455343434353436344434313443
:10093A003234333423342D3430342B342334F0011D
:10094A00F1010130F0070318F10A0030F107003015
:10095A007102643003197002031CB42CB52CA62C46
:10096A0008007E088A007F0882000A128A11B624CB
:10097A000A128A118000840A04087D0603190034C9
:10098A00FF0A0319FE0ABA2C831203132508FA0078
:10099A002408F9000A128A1154260A128A118312AB
:1009AA00031326080A128A11F6240A128A11080069
:1009BA00F2008312031305118511851285160A1296
:1009CA008A11A4240A128A11720883120313880056
:1009DA000A128A11A4240A128A1183120313851295
:1009EA000800F200831203130515851185120A12F5
:1009FA008A11A4240A128A11831203138516720813
:100A0A0088000A128A11A4240A128A118312031373
:100A1A0085120800F3007308F2007208F400192D19
:100A2A000130F2007208F407740884000A128A116D
:100A3A0003200A128A11003A031D242D252D152D93
:100A4A0073087402F000F101F01BF103080000348E
:100A5A00003401340034023400340334003448349E
:100A6A0045344C344C344F3421342034203400344F
:100A7A0020342034003420342034003430343034EC
:100A8A003034303430343034F501F6016A2DF70150
:100A9A00F801562D00000130F7070318F80A003054
:100AAA00F8077808803AF4007308803A7402031D44
:100ABA00602D72087702031C632D642D4F2D0130BF
:100ACA00F5070318F60A0030F6077608803AF400AC
:100ADA007108803A7402031D742D70087502031C94
:100AEA00772D782D4C2D0800831203132508FA0060
:100AFA002408F9000A128A1154260A128A11FC01E2
:100B0A00FD019C2D7C0883120313260784000A1218
:100B1A008A1103200A128A110A128A11F6240A1269
:100B2A008A110130FC070318FD0A0030FD07831201
:100B3A00031326080A128A110F250A128A1171084C
:100B4A007D02031DAA2D70087C02031CAD2DAE2D5B
:100B5A00872D080001300A128A11DD240A128A112F
:100B6A003230F0000030F1003230F2000030F30091
:100B7A000A128A1149250A128A1138300A128A1170
:100B8A00DD240A128A113230F0000030F1003230CE
:100B9A00F2000030F3000A128A1149250A128A115A
:100BAA000E300A128A11DD240A128A113230F0003C
:100BBA000030F1003230F2000030F3000A128A11DC
:100BCA0049250A128A1108000730831603139F0069
:100BDA00850188010A128A11AF250A128A110A129E
:100BEA008A1185240A128A11003083120313A40081
:100BFA00A5000130BA003A08A6000A128A1179251E
:100C0A000A128A11103083120313BC000030BD008F
:100C1A000A128A118C240A128A110A128A110527C9
:100C2A000A128A1183120313BA003A08BB0023304E
:100C3A003B060319212E222E432E3D08A5003C080F
:100C4A00A4003B08BA003A08A6000A128A11C9246D
:100C5A000A128A111F30831203133C063D0403193A
:100C6A00372E382E3F2E0130BC070318BD0A00303C
:100C7A00BD07432E1030BC000030BD000A30F00022
:100C8A000030F1006430F2000030F3000A128A11D9
:100C9A0049250A128A110D2E0A128A1100280230D9
:100CAA000A128A11DD240A128A113230F000003049
:100CBA00F1003230F2000030F3000A128A1149259D
:100CCA000A128A11FA1B6A2E6B2EA72E7A08803A0C
:100CDA00FF0080307F02031D742E10307902031842
:100CEA00772E782EA72E83120313A001A101982E26
:100CFA0014300A128A11DD240A128A113230F000E5
:100D0A000030F1003230F2000030F3000A128A118A
:100D1A0049250A128A11013083120313A007031806
:100D2A00A10A0030A1072108803AFB007A08803A1C
:100D3A007B02031DA22E79082002031CA52EA62ED3
:100D4A007D2E042F7A08803AFF0080307F02031D2F
:100D5A00B02E10307902031CB32EB42E042F7A0859
:100D6A00803AFF0080307F02031DBD2E20307902B9
:100D7A000318C02EC12E042FC0300A128A11DD2496
:100D8A000A128A113230F0000030F1003230F200DB
:100D9A000030F3000A128A1149250A128A1110300A
:100DAA0083120313A2000030A300F62E14300A1295
:100DBA008A11DD240A128A113230F0000030F10063
:100DCA003230F2000030F3000A128A1149250A1261
:100DDA008A11013083120313A2070318A30A0030F1
:100DEA00A3072308803AFB007A08803A7B02031D96
:100DFA00002F79082202031C032F042FDB2E080080
:100E0A0083120313B001B10120308400A030F00036
:100E1A000408F1001030F2007008840083130008FF
:100E2A00F300F00A7108840073088000F10AF20BDB
:100E3A00112F323084003E30F0000408F1000830EF
:100E4A00F2007008840083130008F300F00A7108A6
:100E5A00840073088000F10AF20B262F862F85146E
:100E6A00871307138712B201B3010130B4000030AF
:100E7A00B5000230B6000030B7000330B8000030C9
:100E8A00B9009B2F85108717071387120430B20009
:100E9A000030B3000530B4000030B5000630B600AB
:100EAA000030B7000730B8000030B9009B2F85101A
:100EBA008713071787120830B2000030B3000930D1
:100ECA00B4000030B5000A30B6000030B7000B306D
:100EDA00B8000030B9009B2F8510871307138716B7
:100EEA000C30B2000030B3000D30B4000030B50051
:100EFA000E30B6000030B7000F30B8000030B9002D
:100F0A009B2F831203133108003A03198D2F9B2F4D
:100F1A003008003A0319342F013A0319472F033ACC
:100F2A0003195C2F013A0319712F9B2F06189E2F64
:100F3A009F2FA42F3208203E84000008D32F0619C1
:100F4A00A72FA82FAD2F3408203E84000008D32FE6
:100F5A00061AB02FB12FB62F3608203E840000089B
:100F6A00D32F861AB92FBA2FBF2F3808203E8400F4
:100F7A000008D32F0130B0070318B10A0030B107B7
:100F8A003108803AFF0080307F02031DCE2F0430E3
:100F9A003002031CD12FD22F092F233008008313CC
:100FAA00B030FD000430FE009430FF00A030840011
:100FBA000A128A11BA240A128A115B30FD0005301E
:100FCA00FE002C30FF003E3084000A128A11BA2437
:100FDA000A128A11DB01DC01DD01DE01DF01E00119
:100FEA00E101E201E301E401E501E601E701830130
:060FFA000A128A11E92D24
:02400E00323F3F
:00000001FF
